:020000040800F2
:1000000000500020052F0008B92C0008C12C000862
:10001000C92C0008D12C0008D92C000800000000D1
:10002000000000000000000000000000E12C0008BB
:10003000ED2C000800000000F92C0008052D000838
:100040004D2F00084D2F00084D2F00084D2F0008A0
:100050004D2F00084D2F00084D2F00084D2F000890
:100060004D2F00084D2F00084D2F00084D2F000880
:100070004D2F00084D2F00084D2F00084D2F000870
:10008000112D00084D2F00084D2F00084D2F00089E
:100090004D2F00084D2F00084D2F00084D2F000850
:1000A0004D2F00084D2F00084D2F00084D2F000840
:1000B0004D2F00084D2F00084D2F00084D2F000830
:1000C0004D2F00084D2F00084D2F00084D2F000820
:1000D0004D2F00084D2F00084D2F00084D2F000810
:1000E0004D2F00084D2F00084D2F00080000000084
:1000F0000000000000000000000000000000000000
:0C01000000000000000000005FF808F1A3
:1001100010B5054C237833B9044B13B10448AFF341
:1001200000800123237010BDD801002000000000D2
:1001300030AA000808B5034B1BB103490348AFF3CD
:10014000008008BD00000000DC01002030AA00088B
:10015000034613F8012B002AFBD1181A0138704707
:1001600081F0004102E000BF83F0004330B54FEA68
:1001700041044FEA430594EA050F08BF90EA020FD5
:100180001FBF54EA000C55EA020C7FEA645C7FEA68
:10019000655C00F0E2804FEA5454D4EB5555B8BF8B
:1001A0006D420CDD2C4480EA020281EA030382EAFC
:1001B000000083EA010180EA020281EA0303362D8E
:1001C00088BF30BD11F0004F4FEA01314FF4801C61
:1001D0004CEA113102D0404261EB410113F0004F73
:1001E0004FEA03334CEA133302D0524263EB43032A
:1001F00094EA050F00F0A780A4F10104D5F1200EC8
:100200000DDB02FA0EFC22FA05F2801841F1000122
:1002100003FA0EF2801843FA05F359410EE0A5F1F6
:1002200020050EF1200E012A03FA0EFC28BF4CF027
:10023000020C43FA05F3C01851EBE37101F00045DD
:1002400007D54FF0000EDCF1000C7EEB00006EEBEA
:100250000101B1F5801F1BD3B1F5001F0CD3490874
:100260005FEA30004FEA3C0C04F101044FEA4452CB
:1002700012F5800F80F09A80BCF1004F08BF5FEA52
:10028000500C50F1000041EB045141EA050130BD32
:100290005FEA4C0C404141EB0101013C28BFB1F544
:1002A000801FE9D291F0000F04BF01460020B1FA8F
:1002B00081F308BF2033A3F10B03B3F120020CDA62
:1002C0000C3208DD02F1140CC2F10C0201FA0CF040
:1002D00021FA02F10CE002F11402D8BFC2F1200CA5
:1002E00001FA02F120FA0CFCDCBF41EA0C0190405B
:1002F000E41AA2BF01EB0451294330BD6FEA0404A4
:100300001F3C1CDA0C340EDC04F11404C4F120028E
:1003100020FA04F001FA02F340EA030021FA04F3A0
:1003200045EA030130BDC4F10C04C4F1200220FAF7
:1003300002F001FA04F340EA0300294630BD21FA35
:1003400004F0294630BD94F0000F83F4801306BFFB
:1003500081F480110134013D4EE77FEA645C18BFEF
:100360007FEA655C29D094EA050F08BF90EA020F86
:1003700005D054EA000C04BF1946104630BD91EA7E
:10038000030F1EBF0021002030BD5FEA545C05D181
:100390004000494128BF41F0004130BD14F58004C0
:1003A0003CBF01F5801130BD01F0004545F0FE4134
:1003B00041F470014FF0000030BD7FEA645C1ABF69
:1003C000194610467FEA655C1CBF0B46024650EAA0
:1003D000013406BF52EA033591EA030F41F40021CC
:1003E00030BD00BF90F0000F04BF0021704730B552
:1003F0004FF4806404F132044FF000054FF0000127
:1004000050E700BF90F0000F04BF0021704730B5E7
:100410004FF4806404F1320410F0004548BF4042BC
:100420004FF000013EE700BF42004FEAE2014FEA11
:1004300031014FEA02701FBF12F07F4393F07F4FEC
:1004400081F06051704732F07F4208BF704793F0EF
:100450007F4F04BF41F40021704730B54FF4607402
:1004600001F0004521F000411CE700BF50EA010205
:1004700008BF704730B54FF000050AE050EA0102AE
:1004800008BF704730B511F0004502D5404261EB1E
:1004900041014FF4806404F132045FEA915C3FF45F
:1004A000D8AE4FF003025FEADC0C18BF03325FEAFC
:1004B000DC0C18BF033202EBDC02C2F1200300FAAD
:1004C00003FC20FA02F001FA03FE40EA0E0021FAD2
:1004D00002F11444BDE600BF70B54FF0FF0C4CF4C0
:1004E000E06C1CEA11541DBF1CEA135594EA0C0F72
:1004F00095EA0C0F00F0DEF82C4481EA030621EAAD
:100500004C5123EA4C5350EA013518BF52EA0335E7
:1005100041F4801143F4801338D0A0FB02CE4FF099
:100520000005E1FB02E506F00042E0FB03E54FF0C9
:100530000006E1FB03569CF0000F18BF4EF0010EC1
:10054000A4F1FF04B6F5007F64F5407404D25FEABD
:100550004E0E6D4146EB060642EAC62141EA555170
:100560004FEAC52040EA5E504FEACE2EB4F1FD0CB2
:1005700088BFBCF5E06F1ED8BEF1004F08BF5FEA30
:10058000500E50F1000041EB045170BD06F00046E2
:1005900046EA010140EA020081EA0301B4EB5C048F
:1005A000C2BFD4EB0C0541EA045170BD41F4801187
:1005B0004FF0000E013C00F3AB8014F1360FDEBFAC
:1005C000002001F0004170BDC4F10004203C35DA88
:1005D0000C341BDC04F11404C4F1200500FA05F30B
:1005E00020FA04F001FA05F240EA020001F00042AC
:1005F00021F0004110EBD37021FA04F642EB060122
:100600005EEA430E08BF20EAD37070BDC4F10C044B
:10061000C4F1200500FA04F320FA05F001FA04F20F
:1006200040EA020001F0004110EBD37041F10001FB
:100630005EEA430E08BF20EAD37070BDC4F1200506
:1006400000FA05F24EEA020E20FA04F301FA05F26E
:1006500043EA020321FA04F001F0004121FA04F216
:1006600020EA020000EBD3705EEA430E08BF20EAE6
:10067000D37070BD94F0000F0FD101F00046400020
:1006800041EB010111F4801F08BF013CF7D041EAA2
:10069000060195F0000F18BF704703F000465200A6
:1006A00043EB030313F4801F08BF013DF7D043EA77
:1006B0000603704794EA0C0F0CEA135518BF95EA2D
:1006C0000C0F0CD050EA410618BF52EA4306D1D1B4
:1006D00081EA030101F000414FF0000070BD50EAD3
:1006E000410606BF1046194652EA430619D094EA5D
:1006F0000C0F02D150EA013613D195EA0C0F05D147
:1007000052EA03361CBF104619460AD181EA03019A
:1007100001F0004141F0FE4141F470014FF0000052
:1007200070BD41F0FE4141F4780170BD70B54FF0ED
:10073000FF0C4CF4E06C1CEA11541DBF1CEA13556D
:1007400094EA0C0F95EA0C0F00F0A7F8A4EB05044F
:1007500081EA030E52EA03354FEA013100F0888046
:100760004FEA03334FF0805545EA131343EA12630F
:100770004FEA022245EA111545EA10654FEA0026C4
:100780000EF000419D4208BF964244F1FD0404F57D
:10079000407402D25B084FEA3202B61A65EB0305D9
:1007A0005B084FEA32024FF480104FF4002CB6EB96
:1007B000020E75EB030E22BFB61A754640EA0C0016
:1007C0005B084FEA3202B6EB020E75EB030E22BF56
:1007D000B61A754640EA5C005B084FEA3202B6EB97
:1007E000020E75EB030E22BFB61A754640EA9C0056
:1007F0005B084FEA3202B6EB020E75EB030E22BF26
:10080000B61A754640EADC0055EA060E18D04FEAE3
:10081000051545EA16754FEA06164FEAC30343EA83
:1008200052734FEAC2025FEA1C1CC0D111F4801F50
:100830000BD141EA00014FF000004FF0004CB6E749
:1008400011F4801F04BF01430020B4F1FD0C88BFE8
:10085000BCF5E06F3FF6AFAEB5EB030C04BFB6EBF3
:10086000020C5FEA500C50F1000041EB045170BDE6
:100870000EF0004E4EEA113114EB5C04C2BFD4EB13
:100880000C0541EA045170BD41F480114FF0000E97
:10089000013C90E645EA060E8DE60CEA135594EA13
:1008A0000C0F08BF95EA0C0F3FF43BAF94EA0C0F16
:1008B0000AD150EA01347FF434AF95EA0C0F7FF48B
:1008C00025AF104619462CE795EA0C0F06D152EADF
:1008D00003353FF4FDAE1046194622E750EA4106C3
:1008E00018BF52EA43067FF4C5AE50EA41047FF4D4
:1008F0000DAF52EA43057FF4EBAE12E74FF0FF3C39
:1009000006E000BF4FF0010C02E000BF4FF0010C09
:100910004DF804CD4FEA410C7FEA6C5C4FEA430C82
:1009200018BF7FEA6C5C1BD001B050EA410C0CBFD1
:1009300052EA430C91EA030F02BF90EA020F002033
:10094000704710F1000F91EA030F58BF994208BF9A
:1009500090422CBFD8176FEAE37040F00100704757
:100960004FEA410C7FEA6C5C02D150EA013C07D1AE
:100970004FEA430C7FEA6C5CD6D152EA033CD3D0F9
:100980005DF8040B704700BF8446104662468C46F3
:100990001946634600E000BF01B5FFF7B7FF002826
:1009A00048BF10F1000F01BD4DF808EDFFF7F4FF4F
:1009B0000CBF012000205DF808FB00BF4DF808EDDA
:1009C000FFF7EAFF34BF012000205DF808FB00BFFD
:1009D0004DF808EDFFF7E0FF94BF012000205DF81F
:1009E00008FB00BF4DF808EDFFF7CEFF94BF0120D4
:1009F00000205DF808FB00BF4DF808EDFFF7C4FFCD
:100A000034BF012000205DF808FB00BF4FEA410C15
:100A10007FEA6C5C02D150EA013C0AD14FEA430CF8
:100A20007FEA6C5C02D152EA033C02D14FF0000035
:100A300070474FF0010070474FEA410212F5001273
:100A400015D211D56FF47873B3EB625212D94FEA15
:100A5000C12343F0004343EA505311F0004F23FAFF
:100A600002F018BF404270474FF00000704750EA54
:100A7000013005D111F0004008BF6FF00040704711
:100A80004FF00000704700BF4A0011D212F500126B
:100A900011D20DD56FF47873B3EB62520ED44FEAD6
:100AA000C12343F0004343EA505323FA02F0704756
:100AB0004FF00000704750EA013002D14FF0FF3094
:100AC00070474FF0000070474FEA4102B2F1E04337
:100AD00024BFB3F5001CDCF1FE5C0DD901F0004C25
:100AE0004FEAC0024CEA5070B2F1004F40EB830075
:100AF00008BF20F00100704711F0804F21D113F1A1
:100B00003872BCBF01F00040704741F480114FEAD9
:100B10005252C2F11802C2F1200C10FA0CF320FA62
:100B200002F018BF40F001004FEAC1234FEAD3237F
:100B300003FA0CFC40EA0C0023FA02F34FEA4303E9
:100B4000CCE77FEA625307D150EA01331EBF4FF072
:100B5000FE4040F44000704701F0004040F0FE408D
:100B600040F40000704700BF80F0004002E000BF8A
:100B700081F0004142001FBF5FEA410392EA030F88
:100B80007FEA226C7FEA236C6AD04FEA1262D2EBD2
:100B90001363C1BFD218414048404140B8BF5B42D7
:100BA000192B88BF704710F0004F40F4000020F070
:100BB0007F4018BF404211F0004F41F4000121F086
:100BC0007F4118BF494292EA030F3FD0A2F10102D0
:100BD00041FA03FC10EB0C00C3F1200301FA03F10E
:100BE00000F0004302D5494260EB4000B0F5000F31
:100BF00013D3B0F1807F06D340084FEA310102F1F0
:100C00000102FE2A51D2B1F1004F40EBC25008BFA1
:100C100020F0010040EA03007047490040EB00006B
:100C2000013A28BFB0F5000FEDD2B0FA80FCACF16C
:100C3000080CB2EB0C0200FA0CF0AABF00EBC25099
:100C400052421843BCBFD0401843704792F0000F87
:100C500081F4000106BF80F400000132013BB5E7DA
:100C60004FEA41037FEA226C18BF7FEA236C21D050
:100C700092EA030F04D092F0000F08BF08467047B5
:100C800090EA010F1CBF0020704712F07F4F04D183
:100C9000400028BF40F00040704712F100723CBF96
:100CA00000F50000704700F0004343F0FE4040F4C0
:100CB000000070477FEA226216BF08467FEA23637E
:100CC0000146420206BF5FEA412390EA010F40F469
:100CD000800070474FF0000304E000BF10F00043B5
:100CE00048BF40425FEA000C08BF704743F096439C
:100CF00001464FF000001CE050EA010208BF7047B7
:100D00004FF000030AE000BF50EA010208BF70473D
:100D100011F0004302D5404261EB41015FEA010C52
:100D200002BF84460146002043F0B64308BFA3F14A
:100D30008053A3F50003BCFA8CF2083AA3EBC2532C
:100D400010DB01FA02FC634400FA02FCC2F120024B
:100D5000BCF1004F20FA02F243EB020008BF20F082
:100D60000100704702F1200201FA02FCC2F12002E8
:100D700050EA4C0021FA02F243EB020008BF20EADD
:100D8000DC7070474FF0FF0C1CEAD0521EBF1CEA0B
:100D9000D15392EA0C0F93EA0C0F6FD01A4480EAF9
:100DA000010C400218BF5FEA41211ED04FF00063E2
:100DB00043EA501043EA5111A0FB01310CF000400E
:100DC000B1F5000F3EBF490041EAD3715B0040EA34
:100DD000010062F17F02FD2A1DD8B3F1004F40EB04
:100DE000C25008BF20F00100704790F0000F0CF0D7
:100DF000004C08BF49024CEA502040EA51207F3A9B
:100E0000C2BFD2F1FF0340EAC250704740F4000075
:100E10004FF00003013A5DDC12F1190FDCBF00F066
:100E200000407047C2F10002410021FA02F1C2F114
:100E3000200200FA02FC5FEA310040F1000053EAB0
:100E40004C0308BF20EADC70704792F0000F00F0FE
:100E5000004C02BF400010F4000F013AF9D040EA04
:100E60000C0093F0000F01F0004C02BF490011F498
:100E7000000F013BF9D041EA0C018FE70CEAD15396
:100E800092EA0C0F18BF93EA0C0F0AD030F0004C16
:100E900018BF31F0004CD8D180EA010000F00040CA
:100EA000704790F0000F17BF90F0004F084691F088
:100EB000000F91F0004F14D092EA0C0F01D14202C2
:100EC0000FD193EA0C0F03D14B0218BF084608D18B
:100ED00080EA010000F0004040F0FE4040F40000D5
:100EE000704740F0FE4040F4400070474FF0FF0C68
:100EF0001CEAD0521EBF1CEAD15392EA0C0F93EAAF
:100F00000C0F69D0A2EB030280EA010C49024FEA00
:100F1000402037D04FF0805343EA111143EA1013B9
:100F20000CF000408B4238BF5B0042F17D024FF471
:100F3000000C8B4224BF5B1A40EA0C00B3EB510F4C
:100F400024BFA3EB510340EA5C00B3EB910F24BF35
:100F5000A3EB910340EA9C00B3EBD10F24BFA3EBBA
:100F6000D10340EADC001B0118BF5FEA1C1CE0D182
:100F7000FD2A3FF650AF8B4240EBC25008BF20F035
:100F8000010070470CF0004C4CEA50207F32C2BF89
:100F9000D2F1FF0340EAC250704740F400004FF026
:100FA0000003013A37E792F0000F00F0004C02BF57
:100FB000400010F4000F013AF9D040EA0C0093F021
:100FC000000F01F0004C02BF490011F4000F013B7B
:100FD000F9D041EA0C0195E70CEAD15392EA0C0FE3
:100FE00008D142027FF47DAF93EA0C0F7FF470AF1B
:100FF000084676E793EA0C0F04D14B023FF44CAF5E
:1010000008466EE730F0004C18BF31F0004CCAD1F2
:1010100030F000427FF45CAF31F000437FF43CAF2E
:101020005FE700BF4FEA4002B2F1FE4F0FD34FF02F
:101030009E03B3EB12620DD94FEA002343F0004345
:1010400010F0004F23FA02F018BF404270474FF0F3
:101050000000704712F1610F01D1420205D110F07A
:10106000004008BF6FF0004070474FF0000070472D
:101070007BB972B90029BEBF00204FF0004106E0E5
:1010800008BF00281CBF6FF000414FF0FF3000F098
:10109000D1B9ADF1080C6DE904CE002909DB002BB4
:1010A0001ADB00F06BF8DDF804E0DDE9022304B0A0
:1010B0007047404261EB4101002B1BDB00F05EF802
:1010C000DDF804E0DDE9022304B0404261EB4101B8
:1010D000524263EB43037047524263EB430300F019
:1010E0004DF8DDF804E0DDE9022304B0404261EB95
:1010F00041017047524263EB430300F03FF8DDF8D3
:1011000004E0DDE9022304B0524263EB430370477D
:1011100038B50022002304460D46FFF74FFC28B9DE
:1011200020462946BDE8384000F00AB8204605F1BF
:10113000004100F005F8404261EB410138BD00BFBD
:10114000D0B500220B4B06460F46FFF7C5F9FFF757
:101150009BFC0446FFF746F90022074BFFF7BCF95A
:1011600002460B4630463946FEF7FEFFFFF78CFC81
:101170002146D0BD0000F03D0000F0412DE9F047D0
:10118000089D0C46002B4ED194468C458646B2FAFB
:1011900082F262D94AB1C2F12003914020FA03F3EE
:1011A0000CFA02FC194300FA02FE4FEA1C47B1FB9D
:1011B000F7F407FB14111FFA8CF64FEA1E4343EABB
:1011C000014304FB06F199420AD91CEB030304F125
:1011D000FF3080F01081994240F20D81023C63445F
:1011E000591AB1FBF7F007FB101100FB06F61FFAC6
:1011F0008EF343EA01439E420AD91CEB030300F13C
:10120000FF3180F0FA809E4240F2F780634402385A
:1012100000219B1B40EA04401DB1D3400022C5E9D8
:101220000032BDE8F0878B4205D90DB1C5E9000158
:1012300000210846F5E7B3FA83F1002946D1A3421D
:1012400002D39042C0F0EE80861A64EB03030120C3
:10125000002DE6D0C5E90063E3E7002A40F08F8067
:10126000A1EB0C0401214FEA1C481FFA8CF7B4FBD8
:10127000F8F608FB164407FB06F04FEA1E4343EA64
:101280000443984208D91CEB030306F1FF3402D251
:10129000984200F2CB8026461C1AB4FBF8F008FBFB
:1012A000104400FB07F71FFA8EF343EA04439F4202
:1012B00008D91CEB030300F1FF3402D29F4200F275
:1012C000AE802046DB1B40EA0640A5E7C1F12007BF
:1012D0008B4022FA07FC4CEA030C24FA07F64FEA8B
:1012E0001C49B6FBF9F81FFA8CFE09FB186620FAB8
:1012F00007F38C4000FA01FA08FB0EF01C43230CA4
:1013000043EA0643984202FA01F20AD91CEB0303AE
:1013100008F1FF3680F0818098427ED9A8F102085A
:1013200063441E1AB6FBF9F309FB136603FB0EFEBA
:10133000A4B244EA0644A64508D91CEB040403F110
:10134000FF3066D2A64564D9023B644443EA0840B4
:10135000A0FB0283A4EB0E049C42C6461E4650D35B
:101360004DD055B1BAEB0E0364EB060404FA07F74F
:10137000CB401F43CC40C5E90074002151E70CFA73
:1013800002FCC2F12003D9404FEA1C4820FA03F3C3
:1013900000FA02FEB1FBF8F008FB101194401C4368
:1013A0001FFA8CF7230C43EA014300FB07F1994233
:1013B00008D91CEB030300F1FF362CD299422AD93D
:1013C000023863445B1AB3FBF8F108FB1133A4B293
:1013D00044EA034401FB07F3A34208D91CEB0404CD
:1013E00001F1FF3613D2A34211D902396444E41A41
:1013F00041EA00413BE70446F2E6084608E7C245F9
:10140000AFD2B8EB020E63EB0C060138A9E7314608
:10141000EDE703469AE73046D4E7B04681E76344F8
:1014200002384FE706462346084611E7023E63446A
:1014300032E700BF704700BF80B483B000AF786070
:101440007B6803221A707B6800225A707B68032233
:101450009A707B680322DA707B6803221A717B68BA
:1014600003225A7100BF0C37BD4680BC704780B55F
:101470008AB004AFF8600B467A60FB72FB689B8C05
:101480005B00FB82FB68986AFB7A9AB2F98A41F2A8
:10149000883302930223019307F11403009301237D
:1014A00002F09AFC0346002B0BD17B7D1B021AB283
:1014B0003B7D1BB213431BB29AB27B681A80012397
:1014C00000E0002318461837BD4680BD90B58BB0AC
:1014D00004AFF8607A601A460B46FB721346BB7283
:1014E000FB689B8C5B00FB82FB68986AFB7A9AB274
:1014F000BB7A9BB2F98A41F28834029401937B68EB
:101500000093012302F068FC0346002B01D1002365
:1015100000E0012318461C37BD4690BD80B582B05F
:1015200000AF78607B681A4688217868FFF79FFFD4
:101530000346002B6FD07B6802331A468A217868F5
:10154000FFF795FF0346002B65D07B6804331A46EE
:101550008C217868FFF78BFF0346002B5BD07B68FC
:1015600006331A468E217868FFF781FF0346002B69
:1015700051D07B6808331A4690217868FFF777FFCF
:101580000346002B47D07B680A331A4692217868BD
:10159000FFF76DFF0346002B3DD07B680C331A46E6
:1015A00094217868FFF763FF0346002B33D07B68F4
:1015B0000E331A4696217868FFF759FF0346002B31
:1015C00029D07B6810331A4698217868FFF74FFFBF
:1015D0000346002B1FD07B6812331A469A21786885
:1015E000FFF745FF0346002B15D07B6814331A46DE
:1015F0009C217868FFF73BFF0346002B0BD07B68EC
:1016000016331A469E217868FFF731FF0346002BF8
:1016100001D0012300E0002318460837BD4680BDF5
:1016200080B584B000AF78607B6803F118020123B5
:10163000A1217868FFF74AFF0346002B4BD17B6856
:101640001A331A46E1217868FFF711FF0346002B91
:1016500041D07B6803F11C020123E3217868FFF786
:1016600035FF0346002B36D107F10E031A46E4215D
:101670007868FFF7FCFE0346002B2CD007F10C0323
:101680001A46E5217868FFF7F2FE0346002B22D0C8
:101690007B6803F122020123E7217868FFF716FF38
:1016A0000346002B17D1FB891B011BB203F47F6398
:1016B0001AB2FB891B121BB203F00F031BB21343B8
:1016C0001AB27B68DA83BB891B099BB21AB27B68AA
:1016D0001A84012300E0002318461037BD4680BD60
:1016E00080B588B004AF78600B46FB701346BB70C2
:1016F0007B689B8C5B00FB817B68986AFB789AB265
:10170000F98942F21073029301230193BB1C0093E9
:10171000012302F067FA0346002B01D1002300E009
:10172000012318461037BD4680BD80B584B000AF98
:10173000786039607B689B8C762B05D07B689B8CAE
:10174000772B01D0002399E07B6803F1320201235B
:10175000D0217868FFF7BAFE0346002B01D00023A2
:101760008CE07B6893F83230582B06D07B6893F876
:101770003230602B01D0002380E0B622E02178686F
:10178000FFF7AEFF0346002B01D0002376E007F100
:101790000C020123F3217868FFF798FE0346002B23
:1017A000F5D13B7B03F00103002BF0D17868FFF704
:1017B000B5FE034683F00103DBB2002B00D101E04C
:1017C00000235BE07B6893F83230602B0AD17868A5
:1017D000FFF726FF034683F00103DBB2002B01D0A5
:1017E00000234BE03B685B795B015AB23B685B7856
:1017F0009B005BB213435BB2FB73FB7B1A46F52184
:101800007868FFF76DFF0346002B01D0002335E019
:101810003B681B78012B02D13B6800221A703B68A1
:10182000DB785B015AB23B689B789B005BB2134349
:101830005AB23B681B785BB213435BB2BB737B68E5
:1018400093F83230602B0DD13B681B797B737B7B27
:101850001A46F2217868FFF743FF0346002B01D0B8
:1018600000230BE0BB7B1A46F4217868FFF738FFB2
:101870000346002B01D0002300E001231846103757
:10188000BD4680BD80B487B000AFF860B9607A60B3
:10189000BB68DA10FB681B885B00D31AFA68B2F9E0
:1018A000022002FB03F3DB127B61BB681B11FA68A9
:1018B00012889B1ABA681211F9680988521A02FB39
:1018C00003F31B13FA68B2F9042002FB03F39B1322
:1018D0003B617A693B691A447B681A607B681A68C5
:1018E00013469B00134480331B1218461C37BD4619
:1018F00080BC70472DE9B04FCCB000AFC7F81401E1
:10190000C7F81011C7F80C21D7F80C31DA171C46AC
:101910001546B4F5FA3A45F1FF3BC7E94AABD7F8AB
:101920002C21D7F8283103FB02F1D7F82C21D7F866
:10193000283102FB03F3CA18D7F82831A3FB038927
:1019400002EB09039946D7F81431B3F910301BB2F2
:10195000DA17C7F8B830C7F8BC20D7E92E0103461C
:1019600003FB09F20B4608FB03F313440246A8FBF2
:101970000221C7F8C410C7F8C020D7F8C420134408
:10198000C7F8C430D7E93034C7E94834C7E9483428
:10199000D7F81431B3F90E301BB2DA17C7F8B030EC
:1019A000C7F8B420D7F82831D7E92C452A4602FBDE
:1019B00003F2D7F82C31214601FB03F31A44D7F880
:1019C00028312146A3FB0131C7F80411C7F80031C3
:1019D000D7F80431D318C7F804314FF000004FF0A6
:1019E0000001D7E940452B465904224641EAD2314D
:1019F00023465804D7E9482314183C644B417B64C0
:101A0000D7E91034C7E94834D7F81431B3F90C30AA
:101A10001BB2DA17C7F8A830C7F8AC204FF00000A7
:101A20004FF00001D7F8A830D9000020D7E94823AB
:101A30001418BC634B41FB63D7E90E34C7E9483443
:101A4000D7F82C21D7F8283103FB02F1D7F82C2145
:101A5000D7F8283102FB03F3CA18D7F82831A3FBC3
:101A60000331C7F8FC10C7F8F830D7F8FC30D318AA
:101A7000C7F8FC30D7F81431B3F90A301BB2DA17C3
:101A8000C7F8A030C7F8A420D7E93E342246D7E9EA
:101A90002889414601FB02F24D461846214603467D
:101AA00003FB05F3134402464146A2FB0121C7F89C
:101AB000F410C7F8F020D7F8F4201344C7F8F43036
:101AC0004FF000004FF00001D7E93C452346180ACB
:101AD0002A4640EA02602B461912D7F81431B3F9AE
:101AE00008301BB2DA17C7F89830C7F89C20D7F82F
:101AF0002831D7E926894A4602FB03F2D7F82C3170
:101B0000444604FB03F31A44D7F828314446A3FBA8
:101B10000434C7F8EC40C7F8E830D7F8EC30D318F5
:101B2000C7F8EC304FF000024FF00003D7E93A89D4
:101B30004C462303C44643EA1C53444622038418FC
:101B40003C6341EB03037B63D7E90C34C7E94A34B8
:101B5000D7E94A2303F50041C7F89410C7F890204D
:101B6000D7F81431DB889BB20022C7F88830C7F859
:101B70008C20D7E924342246D7E92289414601FB4B
:101B800002F24D4618462146034603FB05F3134473
:101B900002464146A2FB0121C7F8E410C7F8E02045
:101BA000D7F8E4201344C7F8E4304FF000024FF0B8
:101BB0000003D7E9384529464A102946CB17C7E91B
:101BC0004A23D7E94A23134301D1002346E1D7F83A
:101BD0001031C3F58013DA17BB62FA62D7E90A3411
:101BE000C7E94634D7F818315B10C7F88430D7F806
:101BF0001831DB07C7F88030D7E94823D7E920013F
:101C00000446A41ABC6761EB0303FB67D7E91E45D2
:101C100022462B46911839625B417B62D7E9082343
:101C200021465118B96129464B41FB614FF0000232
:101C30004FF00003D7E9068949468B01414643EA44
:101C4000916341468A01414689183961494643EB0F
:101C5000010179614FF000024FF00003D7E90489D8
:101C600049468B00C44643EA9C7341468A001046AD
:101C70001946034622469B18BB600B462A4642EB98
:101C80000303FB604FF000024FF00003D7E9028925
:101C900049468B00C44643EA9C7341468A0010467D
:101CA0001946034622469B183B672B460A4642EBE1
:101CB00003037B67D7E94A23D7E91C01FFF7D8F96B
:101CC00002460B46C7E94623D7F81431B3F916305C
:101CD0001BB2DA17BB66FA66D7E946234FF000005D
:101CE0004FF00001500B40EAC3405913D7E91A45A1
:101CF0002B4600FB03F2234603FB01F31344224669
:101D0000A2FB0021C7F8DC10C7F8D820D7F8DC20E8
:101D10001344C7F8DC30D7E946234FF000004FF0FA
:101D20000001500B40EAC3405913D7E936452B4612
:101D300000FB03F2234603FB01F313442246A2FBFC
:101D40000021C7F8D410C7F8D020D7F8D420134406
:101D5000C7F8D4304FF000024FF00003D7E9344504
:101D600021464A0E204629460C4642EAC4124B162A
:101D7000C7E94A23D7F81431B3F914301BB2DA1784
:101D80003B667A66D7F81831D7E918452A4602FB30
:101D900003F2D7F81C31214601FB03F31344D7F8B3
:101DA00018212146A2FB0121C7F8CC10C7F8C82092
:101DB000D7F8CC201344C7F8CC304FF000024FF0D6
:101DC0000003D7E932452146CA0C204629460C4675
:101DD00042EA4432CB14C7E94823D7E94601D7E9A0
:101DE0004A238418BC6541EB0303FB65D7E948230C
:101DF000D7E91645214689183965294643EB010183
:101E000079654FF000004FF00001D7E914452346F3
:101E1000180A2A4640EA02602B461912D7F81431F4
:101E2000B3F912301BB2DA17BB64FA644FF0000248
:101E30004FF00003D7E912894C462301C44643EA18
:101E40001C734446220184183C6041EB03037B6011
:101E5000D7E90034C7E94634D7F81831184607F5F2
:101E60009877BD46BDE8B08F80B487B000AFF8600A
:101E7000B9607A607B68A3F596337B61BB689A038F
:101E8000FB68B3F91E301B05D21AFB68B3F920308A
:101E900019467B6901FB03F3D31A03F58043DB1377
:101EA000FA6892F9222011467A6901FB02F2921235
:101EB000F968097F0846796900FB01F1C91201F54B
:101EC000004101FB02F2921202F50012F968B1F929
:101ED0001A1001FB02F202F50052921302FB03F307
:101EE0007B617B69DB137A69D21302FB03F3DB119D
:101EF000FA68127E02FB03F31B117A69D31A7B6125
:101F00007B6923EAE3737B617B69B3F1C85FA8BF98
:101F10004FF0C8537B617B691B1318461C37BD46C5
:101F200080BC704780B58CB000AFF860B9607A6053
:101F30003B60FB6893F83230602B07D03B68002B86
:101F400002D03B6800221A6000233B603B68002BF4
:101F500001D0082300E00623FB62FB6ADBB207F135
:101F60001802F721F868FFF7B1FA0346002B01D0F9
:101F7000002338E03B7E1A037B7E1B011343BA7EAD
:101F80001209D2B21343BB62FB7E1A033B7F1B01D3
:101F900013437A7F1209D2B213437B6207F1140311
:101FA0001A46796AF868FFF76DFC0246BB681A604A
:101FB0007B691A46B96AF868FFF79CFC02467B68A1
:101FC0001A603B68002B0DD0BB7F1B02FA7F1343C6
:101FD0003B627B691A46396AF868FFF745FF02469B
:101FE0003B681A60012318463037BD4680BD0000AB
:101FF00080B588B000AFF860B9607A603B603B683C
:10200000002B02D007F1140300E0002307F11802AF
:1020100007F11C01F868FFF785FF0346002B2DD060
:10202000FB691846FEF75AFE034617491846FEF7A5
:102030005DFF03461A46BB681A60BB691846FEF787
:1020400049FE03464FF087411846FEF74FFF03460F
:102050001A467B681A603B68002B0DD07B691846D6
:10206000FEF738FE03464FF089411846FEF73EFF63
:1020700003461A463B681A60012300E00023184615
:102080002037BD4680BD00BF0000C8422DE9F04F9B
:10209000ADF5497D20AF00F05BFF00F053F900F093
:1020A00061FA00F041FA00F093F900F0BFF900F096
:1020B00011FA00F0E5F94FF480629049904803F07E
:1020C0008AF9904B00221A608F48FFF7B5F98F4BC1
:1020D00076229A848D4B8E4A9A6207E08D498E480B
:1020E00004F03CFC4FF47A7000F094FF8649874876
:1020F000FFF71BFB034683F00103DBB2002BEDD19E
:10210000824B93F83230582B0CBF0123002387F801
:102110009F3297F89F32002B01D0804B00E0804B1C
:102120001A4680497C4804F019FC7B497E4800F03F
:10213000D2FE00F065FFC7F8980200F041FA714B3B
:102140001B68D7F89822D31AB3F57A7FF1D307F535
:10215000227307F5237207F524716C48FFF748FFD7
:1021600007F51F7319466A4800F05AFB07F51C7300
:102170001946674800F0ACFB07F519731946644827
:1021800000F000FC694B1B68FB65694B1E68694BDE
:102190001B681846FEF748F9C7E91401664B1B682F
:1021A0001846FEF741F9C7E91201644B1B6818464F
:1021B000FEF73AF9C7E91001D7F890321846FEF752
:1021C00033F9C7E90E01D7F88C321846FEF72CF91F
:1021D000C7E90C01D7F888321846FEF725F9C7E998
:1021E0000A01D7F87C321846FEF71EF9C7E9080144
:1021F000D7F880321846FEF717F9C7E90601D7F875
:1022000084321846FEF710F9C7E90401D7F8703296
:102210001846FEF709F9C7E90201D7F874321846E3
:10222000FEF702F9C7E90001D7F878321846FEF741
:10223000FBF882468B46D7F864321846FEF7F4F86E
:1022400080468946D7F868321846FEF7EDF804460E
:102250000D46D7F86C321846FEF7E6F802460B46F4
:1022600007F16400CDE91E23CDE91C45CDE91A89AB
:10227000CDE918ABD7E90023CDE91623D7E902232E
:10228000CDE91423D7E90423CDE91223D7E90623A6
:10229000CDE91023D7E90823CDE90E23D7E90A2396
:1022A000CDE90C23D7E90C23CDE90A23D7E90E2386
:1022B000CDE90823D7E91023CDE90623D7E9122376
:1022C000CDE90423D7E91423CDE902230096FB6D61
:1022D0001B4A4FF4007104F00DFBC7F89402D7F8C5
:1022E00094329AB207F164014FF0FF330E4802F0C6
:1022F000EFFF044AD7F8983213601AE7F401002080
:1023000098060020B8080020980700206C070020DD
:10231000FC05002048AA0008A007002068AA0008C1
:1023200070AA000878AA000850060020AC08002017
:10233000B0080020B4080020A4080020A80800204D
:102340008CAA000880B590B000AF07F118032822CE
:102350000021184604F091FB3B1D00221A605A60D0
:102360009A60DA601A610123BB614FF48033FB612C
:1023700000233B620123BB6202237B634FF4803363
:10238000BB634FF4E013FB6307F11803184602F038
:102390003FFB0346002B01D000F03CFA0F237B608B
:1023A0000223BB600023FB604FF480633B6100238A
:1023B0007B613B1D0221184602F0ACFD0346002B59
:1023C00001D000F027FA00BF4037BD4680BD0000B5
:1023D00080B500AF134B144A1A60124B4FF4E13230
:1023E0005A60104B00229A600E4B0022DA600D4BAF
:1023F0004FF480421A610B4B00225A61094B0022B4
:102400009A61084B0022DA61064B00221A620548E5
:1024100001F0A4FA0346002B01D000F0FBF900BF45
:1024200080BD00BFFC0500200054004080B500AF17
:10243000114B124A1A60104B4FF4E1325A600E4BA6
:1024400000229A600C4B0022DA600B4B00221A61CA
:10245000094B0C225A61084B00229A61064B00225C
:10246000DA61054802F0E4FE0346002B01D000F0DB
:10247000D1F900BF80BD00BF5006002000380140E8
:1024800080B500AF114B124A1A60104B4FF4165230
:102490005A600E4B00229A600C4B0022DA600B4B04
:1024A00000221A61094B0C225A61084B00229A61E2
:1024B000064B0022DA61054802F0BAFE0346002B03
:1024C00001D000F0A7F900BF80BD00BF9806002032
:1024D0000044004080B500AF114B124A1A60104B07
:1024E0004FF4E1325A600E4B00229A600C4B0022EE
:1024F000DA600B4B00221A61094B0C225A61084B1F
:1025000000229A61064B0022DA61054802F090FE33
:102510000346002B01D000F07DF900BF80BD00BF55
:10252000E00600200048004080B582B000AF0C4BB0
:102530005B690B4A43F001035361094B5B6903F08C
:1025400001037B607B6800220021102000F05DFE0B
:10255000102000F076FE00BF0837BD4680BD00BFEA
:102560000010024080B485B000AF144B9B69134A41
:1025700043F020039361114B9B6903F02003FB6040
:10258000FB680E4B9B690D4A43F0040393610B4BB0
:102590009B6903F00403BB60BB68084B9B69074A57
:1025A00043F008039361054B9B6903F008037B60CC
:1025B0007B6800BF1437BD4680BC704700100240E6
:1025C00090B58BB004AF764B1B78DBB2002B00F0DC
:1025D000E2807449744804F058FA78617B69002BF2
:1025E00000F0CD80714B0293714B0193714B0093BE
:1025F000714B724A7249786904F0D0F90346052B91
:1026000040F0B1806C4B1B686E491846FEF76EFCBB
:1026100003461846FEF706FD03461846FEF75EFB26
:1026200003463B61644B1C6866493869FEF7AAFBA8
:10263000034619462046FEF79BFA0346FB606249B3
:10264000F868FEF753FC034639691846FEF792FA1C
:1026500003461A46584B1A60564B1B78532B05D12C
:10266000554B1B6883F00043534A1360504B1B6863
:1026700054491846FEF73AFC03461846FEF7D2FCCA
:1026800003461846FEF72AFB0346BB60484B1C680E
:102690004C49B868FEF776FB034619462046FEF71C
:1026A00067FA03467B6048497868FEF71FFC0346DB
:1026B000B9681846FEF75EFA03461A463C4B1A60A4
:1026C0003A4B1B78572B05D1394B1B6883F00043DD
:1026D000374A1360394B1B681846FEF7A3FC0346C4
:1026E0003A4A82FB03121213DB17D31A384A1360DB
:1026F000324B1C68364B1B6842F2107202FB03F32C
:102700001846FEF7EBFA034619462046FEF730FA64
:1027100003461846FEF786FC03462E4A82FB031248
:102720005211DB17D31A2C4A1360244B1C68234B1D
:102730001B681846FEF776FC0346264A82FB031206
:102740005211DB17D31A642202FB03F31846FEF77B
:10275000C5FA034619462046FEF70AFA03461A460A
:102760001E4B1A600BE0154B4FF000021A60124B23
:102770004FF000021A600E4B4FF000021A60084B37
:1027800000221A70164B00221A604FF4806206492C
:10279000144802F020FE00BF1C37BD4690BD00BFAC
:1027A000F805002044AB0008F401002001000020DF
:1027B000A808002000000020A4080020A008002095
:1027C0004CAB00080000C84200007042AD8BDB68D3
:1027D000AC0800201F85EB51B0080020B408002091
:1027E000F40500209806002080B483B000AF786024
:1027F0007B681B68054A934202D1054B01221A707F
:1028000000BF0C37BD4680BC704700BF004400408D
:10281000F805002080B400AF72B600BF00BFFDE72E
:1028200090B58BB004AF786039604FF47A7302933F
:102830000623019307F10C03009301233B22D021CF
:10284000786801F0C9FA00237B6136E07B695B00A0
:1028500018333B4413F80C3C1B021AB27B695B0033
:10286000013318333B4413F80C3C1BB213437B82F7
:10287000B7F912301846FEF731FA03461846FDF74D
:10288000D3FD02460B46FDF771FC02460B4610468F
:1028900019464FF000020D4BFDF748FF02460B466C
:1028A000104619467B699B003A68D418FEF70CF96C
:1028B000034623607B6901337B617B69022BC5DDA5
:1028C00000BF00BF1C37BD4690BD00BF0000E04008
:1028D00090B58BB004AF786039604FF47A7302938F
:1028E0000623019307F10C03009301234322D02117
:1028F000786801F071FA00237B6137E07B695B0047
:1029000018333B4413F80C3C1B021AB27B695B0082
:10291000013318333B4413F80C3C1BB213437B8246
:10292000B7F912301846FEF7D9F903461846FDF7F5
:102930007BFD4FF00002114BFDF7CEFD02460B462A
:10294000104619464FF000020D4BFDF7EFFE024610
:102950000B46104619467B699B003A68D418FEF76F
:10296000B3F8034623607B6901337B617B69022BEB
:10297000C4DD00BF00BF1C37BD4690BD00406F40A6
:102980000000E04090B58BB004AF786039604FF440
:102990007A7302930723019307F10803009301233D
:1029A0000A22D021786801F017FA00237B611FE02A
:1029B0007B695B0018333B4413F8103C1AB27B6907
:1029C0005B00013318333B4413F8103C1B021BB26D
:1029D00013437B827B699B003A68D418B7F91230A5
:1029E0001846FEF77BF9034623607B6901337B6160
:1029F0007B69022BDCDD00BF00BF1C37BD4690BDEC
:102A000080B485B000AF154B9B69144A43F00103B5
:102A10009361124B9B6903F00103BB60BB680F4BD2
:102A2000DB690E4A43F08053D3610C4BDB6903F042
:102A300080537B607B680A4B5B68FB60FB6823F01C
:102A4000E063FB60FB6843F08063FB60044AFB6863
:102A5000536000BF1437BD4680BC70470010024071
:102A60000000014080B588B000AF786007F1100326
:102A700000221A605A609A60DA607B681B68154A07
:102A8000934223D1144B9B69134A43F0080393618B
:102A9000114B9B6903F00803FB60FB68C0233B619B
:102AA00012237B610323FB6107F1100319460B48D6
:102AB00000F0D0FD084BDB69074A43F40013D361F3
:102AC000054BDB6903F40013BB60BB6800BF203714
:102AD000BD4680BD0054004000100240000C014083
:102AE00080B58CB000AF786007F1200300221A6037
:102AF0005A609A60DA607B681B68674A934232D1F9
:102B0000664B9B69654A43F480439361634B9B69C1
:102B100003F48043FB61FB69604B9B695F4A43F0B0
:102B2000040393615D4B9B6903F00403BB61BB69C4
:102B30004FF400733B6202237B620323FB6207F1C5
:102B400020031946564800F085FD4FF480633B6230
:102B500000237B620023BB6207F120031946504823
:102B600000F078FD93E07B681B684E4A934257D192
:102B70004A4BDB69494A43F40033D361474BDB6975
:102B800003F400337B617B69444B9B69434A43F008
:102B900004039361414B9B6903F004033B613B6970
:102BA00004233B6202237B620323FB6207F12003C1
:102BB00019463B4800F04EFD08233B6200237B6230
:102BC0000023BB6207F120031946354800F042FD9F
:102BD000354B364A1A60344B00225A60324B002281
:102BE0009A60314B8022DA602F4B00221A612E4B03
:102BF00000225A612C4B20229A612B4B4FF4005239
:102C0000DA61294800F038FB0346002B01D0FFF7BA
:102C100001FE7B68244ADA63234A7B68536236E00C
:102C20007B681B68224A934231D11C4BDB691B4AEB
:102C300043F48023D361194BDB6903F48023FB60E9
:102C4000FB68164B9B69154A43F008039361134BCD
:102C50009B6903F00803BB60BB684FF480633B6271
:102C600002237B620323FB6207F12003194611480C
:102C700000F0F0FC4FF400633B6200237B62002312
:102C8000BB6207F1200319460A4800F0E3FC00BFCD
:102C90003037BD4680BD00BF003801400010024003
:102CA0000008014000440040280700206C0002405A
:102CB00000480040000C014080B400AF00BFFDE7B9
:102CC00080B400AF00BFFDE780B400AF00BFFDE7F8
:102CD00080B400AF00BFFDE780B400AF00BFFDE7E8
:102CE00080B400AF00BFBD4680BC704780B400AF69
:102CF00000BFBD4680BC704780B400AF00BFBD467A
:102D000080BC704780B500AF00F068F900BF80BD9F
:102D100080B500AF024800F069FB00BF80BD00BF76
:102D20002807002080B400AF01231846BD4680BCB0
:102D3000704780B582B000AF7860396003F006FF5D
:102D4000034616221A604FF0FF3318460837BD4677
:102D500080BD80B582B000AF78604FF0FF317868F9
:102D6000FFF7E7FF00BFFDE780B586B000AFF86072
:102D7000B9607A6000237B610AE0AFF3008001460E
:102D8000BB685A1CBA60CAB21A707B6901337B6196
:102D90007A697B689A42F0DB7B6818461837BD4633
:102DA00080BD80B586B000AFF860B9607A6000235E
:102DB0007B6109E0BB685A1CBA601B781846AFF308
:102DC00000807B6901337B617A697B689A42F1DB21
:102DD0007B6818461837BD4680BD80B483B000AF0D
:102DE00078604FF0FF3318460C37BD4680BC704703
:102DF00080B483B000AF786039603B684FF4005214
:102E00005A60002318460C37BD4680BC704780B41A
:102E100083B000AF7860012318460C37BD4680BCF4
:102E2000704780B485B000AFF860B9607A60002365
:102E300018461437BD4680BC7047000080B586B088
:102E400000AF7860144A154BD31A7B617B693B61F4
:102E5000134B1B68002B02D1114B124A1A60104B06
:102E60001A687B6813443A699A4207D203F06EFEEF
:102E700003460C221A604FF0FF3309E0084B1B6831
:102E8000FB60074B1A687B681344054A1360FB68B4
:102E900018461837BD4680BD0050002000040000D1
:102EA000BC080020100A002080B400AF00BFBD465F
:102EB00080BC704780B582B000AF78600B46FB7075
:102EC000F91C4FF6FF730122786802F001FA00BF87
:102ED0000837BD4680BD80B582B000AF78603960EC
:102EE00007E03B685A1C3A601B7819467868FFF780
:102EF000E1FF3B681B78002BF3D100BF00BF083710
:102F0000BD4680BDFFF7D0FF0B480C490C4A00239B
:102F100002E0D458C4500433C4188C42F9D3094A8F
:102F2000094C002301E013600432A242FBD303F0FA
:102F300013FEFFF7ABF8704700000020D801002017
:102F400024B00008D8010020100A0020FEE700008D
:102F500080B500AF084B1B68074A43F010031360AD
:102F6000032000F047F90F2000F008F8FFF748FDB4
:102F70000023184680BD00BF0020024080B582B00B
:102F800000AF7860124B1A68124B1B7819464FF449
:102F90007A73B3FBF1F3B2FBF3F3184600F05FF979
:102FA0000346002B01D001230EE07B680F2B0AD8CB
:102FB000002279684FF0FF3000F027F9064A7B685D
:102FC0001360002300E0012318460837BD4680BD8A
:102FD000040000200C0000200800002080B400AF96
:102FE000054B1B781A46054B1B681344034A1360B4
:102FF00000BFBD4680BC70470C000020C008002008
:1030000080B400AF024B1B681846BD4680BC7047B9
:10301000C008002080B584B000AF7860FFF7F0FFF3
:10302000B8607B68FB60FB68B3F1FF3F05D00A4BDB
:103030001B781A46FB681344FB6000BFFFF7E0FFF4
:103040000246BB68D31AFA689A42F7D800BF00BF9D
:103050001037BD4680BD00BF0C00002080B485B095
:1030600000AF78607B6803F00703FB600C4BDB6804
:10307000BB60BA684FF6FF031340BB60FB681A02DF
:10308000BB68134343F0BF6343F40033BB60044A9F
:10309000BB68D36000BF1437BD4680BC704700BF1B
:1030A00000ED00E080B400AF044BDB681B0A03F0C6
:1030B00007031846BD4680BC704700BF00ED00E026
:1030C00080B483B000AF0346FB7197F90730002B43
:1030D0000BDBFB7903F01F02064997F907305B0908
:1030E000012000FA02F241F8232000BF0C37BD4650
:1030F00080BC704700E100E080B483B000AF0346BD
:103100003960FB7197F90730002B0ADB3B68DAB2B4
:103110000C4997F907301201D2B20B4483F800230F
:103120000AE03B68DAB20849FB7903F00F03043B7D
:103130001201D2B20B441A7600BF0C37BD4680BCD8
:10314000704700BF00E100E000ED00E080B489B00E
:1031500000AFF860B9607A60FB6803F00703FB61B9
:10316000FB69C3F10703042B28BF0423BB61FB6980
:103170000433062B02D9FB69033B00E000237B618B
:103180004FF0FF32BB6902FA03F3DA43BB681A401F
:103190007B699A404FF0FF317B6901FA03F3D94311
:1031A0007B680B40134318462437BD4680BC7047EC
:1031B00080B582B000AF78607B68013BB3F1807F5F
:1031C00001D301230FE00A4A7B68013B53600F21C2
:1031D0004FF0FF30FFF790FF054B00229A60044B41
:1031E00007221A60002318460837BD4680BD00BF7D
:1031F00010E000E080B582B000AF78607868FFF73B
:103200002DFF00BF0837BD4680BD80B586B000AF3A
:103210000346B9607A60FB7300237B61FFF742FFCE
:1032200078617A68B9687869FFF790FF024697F984
:103230000F3011461846FFF75FFF00BF1837BD4635
:1032400080BD80B582B000AF0346FB7197F90730AF
:103250001846FFF735FF00BF0837BD4680BD80B573
:1032600082B000AF78607868FFF7A2FF0346184687
:103270000837BD4680BD000080B485B000AF7860DF
:103280000023FB607B68002B01D1012343E07B68B6
:103290001B681A46224B1344224AA2FB03231B0934
:1032A0009A007B681A647B681F4ADA637B68022293
:1032B00083F821207B681B681B68FB60FB6823F494
:1032C0007F5323F03003FB607B685A687B689B6800
:1032D0001A437B68DB681A437B681B691A437B6867
:1032E0005B691A437B689B691A437B68DB691343FC
:1032F000FA681343FB607B681B68FA681A607B6896
:1033000000229A637B68012283F821207B680022D7
:1033100083F82020002318461437BD4680BC704730
:10332000F8FFFDBFCDCCCCCC0000024080B586B00C
:1033300000AFF860B9607A603B600023FB75FB6802
:1033400093F82030012B01D102234BE0FB680122CE
:1033500083F82020FB6893F82130DBB2012B3AD1AF
:10336000FB68022283F82120FB6800229A63FB6835
:103370001B681A68FB681B6822F001021A603B6830
:103380007A68B968F86800F037F9FB68DB6A002BE7
:1033900008D0FB681B681A68FB681B6842F00E02C5
:1033A0001A600FE0FB681B681A68FB681B6822F054
:1033B00004021A60FB681B681A68FB681B6842F00D
:1033C0000A021A60FB681B681A68FB681B6842F0F7
:1033D00001021A6005E0FB68002283F82020022326
:1033E000FB75FB7D18461837BD4680BD80B584B09F
:1033F00000AF78607B68DB6B1B68FB607B681B68D9
:103400001B68BB607B681B6C04229A40FB681340FE
:10341000002B4FD0BB6803F00403002B4AD07B681D
:103420001B681B6803F02003002B07D17B681B6817
:103430001A687B681B6822F004021A607B681B68AC
:10344000664A934229D07B681B68654A934222D022
:103450007B681B68634A93421AD07B681B68624A88
:10346000934212D07B681B68604A93420AD07B6803
:103470001B685F4A934202D14FF480030EE04FF085
:1034800080630BE04FF4802308E04FF4804305E0B5
:103490004FF4806302E0402300E00423554A536068
:1034A0007B68DB6A002B00F094807B68DB6A7868BD
:1034B00098478EE07B681B6C02229A40FB681340A1
:1034C000002B56D0BB6803F00203002B51D07B6861
:1034D0001B681B6803F02003002B0BD17B681B6863
:1034E0001A687B681B6822F00A021A607B68012256
:1034F00083F821207B681B68384A934229D07B6877
:103500001B68374A934222D07B681B68354A934236
:103510001AD07B681B68344A934212D07B681B68C0
:10352000324A93420AD07B681B68314A934202D1E7
:103530004FF400130EE04FF000730BE04FF4003334
:1035400008E04FF4005305E04FF4007302E020233D
:1035500000E00223274A53607B68002283F8202082
:103560007B689B6A002B34D07B689B6A786898479D
:103570002FE07B681B6C08229A40FB681340002BED
:1035800028D0BB6803F00803002B23D07B681B689E
:103590001A687B681B6822F00E021A607B681A6C3E
:1035A0007B68DB6B012101FA02F25A607B68012221
:1035B0009A637B68012283F821207B68002283F8CC
:1035C00020207B681B6B002B04D07B681B6B78680A
:1035D000984700BF00BF1037BD4680BD08000240BD
:1035E0001C000240300002404400024058000240EB
:1035F0006C0002400000024080B485B000AFF8606B
:10360000B9607A603B60FB681A6CFB68DB6B012178
:1036100001FA02F25A60FB681B683A685A60FB685C
:103620005B68102B08D1FB681B687A689A60FB689E
:103630001B68BA68DA6007E0FB681B68BA689A60C2
:10364000FB681B687A68DA6000BF1437BD4680BC2F
:103650007047000080B48BB000AF78603960002301
:103660007B6200233B6269E101227B6A02FA03F379
:10367000FB613B681B68FA691340BB61BA69FB696F
:103680009A4240F058813B685B689A4A93425ED008
:10369000984A934275D8984A934258D0964A934292
:1036A0006FD8964A934252D0944A934269D8944A2A
:1036B00093424CD0924A934263D8924A934246D066
:1036C000904A93425DD8122B2AD8122B59D801A2C6
:1036D00052F823F04F370008293700083B3700081D
:1036E0007D370008833700088337000883370008D8
:1036F00083370008833700088337000883370008C2
:1037000083370008833700088337000883370008B1
:103710008337000883370008313700084537000831
:10372000794A934213D02CE03B68DB683B6229E086
:103730003B68DB6804333B6224E03B68DB680833AA
:103740003B621FE03B68DB680C333B621AE03B687E
:103750009B68002B02D104233B6213E03B689B680B
:10376000012B05D108233B627B68FA691A6109E0E5
:1037700008233B627B68FA695A6103E000233B62DD
:1037800000E000BFBB69FF2B01D87B6801E07B68CC
:1037900004337B61BB69FF2B02D87B6A9B0002E08C
:1037A0007B6A083B9B003B617B691A680F213B6980
:1037B00001FA03F3DB431A40396A3B6901FA03F368
:1037C0001A437B691A603B685B6803F08053002BE7
:1037D00000F0B1804D4B9B694C4A43F0010393616B
:1037E0004A4B9B6903F00103BB60BB68484A7B6A94
:1037F0009B08023352F82330FB607B6A03F003031B
:103800009B000F2202FA03F3DB43FA681340FB60CC
:103810007B68404A934213D07B683F4A93420DD065
:103820007B683E4A934207D07B683D4A934201D170
:10383000032306E0042304E0022302E0012300E066
:1038400000237A6A02F0030292009340FA6813435D
:10385000FB602F497B6A9B080233FA6841F82320FA
:103860003B685B6803F48013002B06D02D4B9A68ED
:103870002C49BB6913438B6006E02A4B9A68BB69ED
:10388000DB43284913408B603B685B6803F40013FB
:10389000002B06D0234BDA682249BB691343CB6067
:1038A00006E0204BDA68BB69DB431E491340CB605E
:1038B0003B685B6803F40033002B06D0194B5A6851
:1038C0001849BB6913434B6006E0164B5A68BB6945
:1038D000DB43144913404B603B685B6803F480335F
:1038E000002B21D00F4B1A680E49BB6913430B60A4
:1038F00021E000BF00003210000031100000221053
:1039000000002110000012100000111000100240F1
:103910000000014000080140000C0140001001407F
:1039200000140140000401400B4B1A68BB69DB43E3
:10393000094913400B607B6A01337B623B681A685C
:103940007B6A22FA03F3002B7FF48EAE00BF00BF28
:103950002C37BD4680BC70470004014080B584B060
:1039600000AF78607B68002B01D101232BE17B68DD
:1039700093F83D30DBB2002B06D17B68002283F840
:103980003C207868FFF76EF87B68242283F83D209E
:103990007B681B681A687B681B6822F001021A604A
:1039A0007B681B681A687B681B6842F400421A60D7
:1039B0007B681B681A687B681B6822F400421A60E7
:1039C00001F0F0FBF8607B685B68814A934207D89E
:1039D000FB68804A934294BF01230023DBB206E0D8
:1039E000FB687D4A934294BF01230023DBB2002B86
:1039F00001D00123E7E0FB68784AA2FB03239B0C7C
:103A0000BB607B681B685B6823F03F017B681B68B9
:103A1000BA680A435A607B681B681B6A23F03F013F
:103A20007B685B686A4A934202D8BB68013309E04D
:103A3000BB684FF4967202FB03F3694AA2FB0323AF
:103A40009B0901337A6812680B4313627B681B6819
:103A5000DB6923F44F4222F0FF027B685B685C491C
:103A60008B4219D8FB68591E7B685B685B00B1FB11
:103A7000F3F3591C40F6FC730B40002B0AD0FB6893
:103A8000591E7B685B685B00B1FBF3F30133C3F342
:103A90000B0351E004234FE07B689B68002B11D19E
:103AA000FB68581E7B6859680B465B000B44B0FBF3
:103AB000F3F30133C3F30B03002B0CBF01230023EB
:103AC000DBB212E0FB68581E7B6859680B469B000E
:103AD0000B4499000B44B0FBF3F30133C3F30B0326
:103AE000002B0CBF01230023DBB2002B01D00123EC
:103AF00022E07B689B68002B0ED1FB68581E7B6818
:103B000059680B465B000B44B0FBF3F30133C3F37E
:103B10000B0343F400430FE0FB68581E7B685968B1
:103B20000B469B000B4499000B44B0FBF3F30133AD
:103B3000C3F30B0343F44043796809681343CB6133
:103B40007B681B681B6823F0C0017B68DA697B68AF
:103B50001B6A1A437B681B680A431A607B681B68F0
:103B60009B6823F4034323F0FF037A6811697A68A2
:103B7000D26811437A6812680B4393607B681B68B4
:103B8000DB6823F0FF017B685A697B689B691A43F5
:103B90007B681B680A43DA607B681B681A687B686D
:103BA0001B6842F001021A607B6800221A647B687D
:103BB000202283F83D207B6800221A637B68002264
:103BC00083F83E20002318461037BD4680BD00BF55
:103BD000A08601007F841E00FF083D0083DE1B439A
:103BE000D34D621080B588B002AFF8600846114628
:103BF0001A4603467B810B463B811346FB80FFF749
:103C0000FFF97861FB6893F83D30DBB2202B40F080
:103C1000D9807B690093192301226D49F86800F06F
:103C2000C1FC0346002B01D00223CCE0FB6893F8D3
:103C30003C30012B01D10223C5E0FB68012283F84F
:103C40003C20FB681B681B6803F00103012B07D0B5
:103C5000FB681B681A68FB681B6842F001021A6067
:103C6000FB681B681A68FB681B6822F400621A6014
:103C7000FB68212283F83D20FB68402283F83E2028
:103C8000FB6800221A64FB683A6A5A62FB68BA8CC5
:103C90005A85FB685B8D9AB2FB681A85FB684D4AB2
:103CA000DA62F8883A8979897B690193BB6A009363
:103CB0000346F86800F0F8FA0346002B52D00123BF
:103CC00081E07A69B96AF86800F086FD0346002B46
:103CD0000DD0FB681B6C042B07D1FB681B681A68AE
:103CE000FB681B6842F400721A6001236BE0FB68FA
:103CF0005B6A1A78FB681B681A61FB685B6A5A1C6E
:103D0000FB685A62FB681B8D013B9AB2FB681A85FF
:103D1000FB685B8D9BB2013B9AB2FB685A85FB68DE
:103D20001B685B6903F00403042B1BD1FB681B8D2C
:103D3000002B17D0FB685B6A1A78FB681B681A6156
:103D4000FB685B6A5A1CFB685A62FB681B8D013B6F
:103D50009AB2FB681A85FB685B8D9BB2013B9AB2F5
:103D6000FB685A85FB681B8D002BAAD17A69B96A5A
:103D7000F86800F079FD0346002B0DD0FB681B6C42
:103D8000042B07D1FB681B681A68FB681B6842F4A8
:103D900000721A60012316E0FB681B681A68FB6852
:103DA0001B6842F400721A60FB68202283F83D20F1
:103DB000FB68002283F83E20FB68002283F83C2049
:103DC000002300E0022318461837BD4680BD00BF1F
:103DD000020010000000FFFF80B58CB002AFF86059
:103DE000084611461A4603467B810B463B81134623
:103DF000FB8000233B62FFF703F97862FB6893F8CE
:103E00003D30DBB2202B40F044827B6A00931923C3
:103E100001228249F86800F0C5FB0346002B01D05F
:103E2000022337E2FB6893F83C30012B01D10223D7
:103E300030E2FB68012283F83C20FB681B681B68AA
:103E400003F00103012B07D0FB681B681A68FB68AD
:103E50001B6842F001021A60FB681B681A68FB6865
:103E60001B6822F400621A60FB68222283F83D205E
:103E7000FB68402283F83E20FB6800221A64FB683E
:103E80003A6B5A62FB68BA8E5A85FB685B8D9AB2B0
:103E9000FB681A85FB68624ADA62F8883A89798990
:103EA0007B6A0193BB6B00930346F86800F092FABB
:103EB0000346002B01D00123ECE1FB681B8D002B96
:103EC00013D10023FB61FB681B685B69FB61FB6826
:103ED0001B689B69FB61FB69FB681B681A68FB68D0
:103EE0001B6842F400721A60C0E1FB681B8D012B55
:103EF0001ED1FB681B681A68FB681B6822F480628D
:103F00001A6072B600BF0023BB61FB681B685B6967
:103F1000BB61FB681B689B69BB61BB69FB681B6875
:103F20001A68FB681B6842F400721A6062B635E0DA
:103F3000FB681B8D022B1ED1FB681B681A68FB688F
:103F40001B6842F400621A6072B600BF00237B61F6
:103F5000FB681B685B697B61FB681B689B697B6115
:103F60007B69FB681B681A68FB681B6822F4806227
:103F70001A6062B612E0FB681B681A68FB681B686F
:103F800042F480621A6000233B61FB681B685B6936
:103F90003B61FB681B689B693B613B6966E1FB68B1
:103FA0001B8D032B00F21F81FB681B8D012B23D17E
:103FB0007A6AB96BF86800F09FFC0346002B01D0C9
:103FC000012367E1FB681B681A69FB685B6AD2B270
:103FD0001A70FB685B6A5A1CFB685A62FB681B8D8F
:103FE000013B9AB2FB681A85FB685B8D9BB2013B73
:103FF0009AB2FB685A8539E1FB681B8D022B52D1BE
:104000007B6A0093BB6B00220649F86800F0CAFA8D
:104010000346002B08D001233CE100BF0200100042
:104020000000FFFF0400010072B600BFFB681B68C0
:104030001A68FB681B6842F400721A60FB681B6810
:104040001A69FB685B6AD2B21A70FB685B6A5A1C19
:10405000FB685A62FB681B8D013B9AB2FB681A85AC
:10406000FB685B8D9BB2013B9AB2FB685A8562B6D6
:1040700000BFFB681B681A69FB685B6AD2B21A70E2
:10408000FB685B6A5A1CFB685A62FB681B8D013B2C
:104090009AB2FB681A85FB685B8D9BB2013B9AB2B2
:1040A000FB685A85E2E07B6A0093BB6B00227B4988
:1040B000F86800F077FA0346002B01D00123E9E00D
:1040C000FB681B681A68FB681B6822F480621A6030
:1040D00072B600BFFB681B681A69FB685B6AD2B2E4
:1040E0001A70FB685B6A5A1CFB685A62FB681B8D7E
:1040F000013B9AB2FB681A85FB685B8D9BB2013B62
:104100009AB2FB685A85664B1B68DB08654AA2FBBE
:1041100003231A0A13469B001344DA00D31A3B62A6
:104120003B6A013B3B623B6A002B18D1FB680022D3
:104130001A63FB68202283F83D20FB68002283F885
:104140003E20FB681B6C43F02002FB681A6462B6D9
:1041500000BFFB68002283F83C2001239AE0FB6843
:104160001B685B6903F00403042BD9D1FB681B684F
:104170001A68FB681B6842F400721A60FB681B68CF
:104180001A69FB685B6AD2B21A70FB685B6A5A1CD8
:10419000FB685A62FB681B8D013B9AB2FB681A856B
:1041A000FB685B8D9BB2013B9AB2FB685A8562B695
:1041B00000BFFB681B681A69FB685B6AD2B21A70A1
:1041C000FB685B6A5A1CFB685A62FB681B8D013BEB
:1041D0009AB2FB681A85FB685B8D9BB2013B9AB271
:1041E000FB685A8542E07A6AB96BF86800F084FB94
:1041F0000346002B01D001234CE0FB681B681A69C1
:10420000FB685B6AD2B21A70FB685B6A5A1CFB6877
:104210005A62FB681B8D013B9AB2FB681A85FB68EA
:104220005B8D9BB2013B9AB2FB685A85FB681B68A9
:104230005B6903F00403042B18D1FB681B681A693F
:10424000FB685B6AD2B21A70FB685B6A5A1CFB6837
:104250005A62FB681B8D013B9AB2FB681A85FB68AA
:104260005B8D9BB2013B9AB2FB685A85FB681B8D44
:10427000002B7FF494AEFB68202283F83D20FB687E
:10428000002283F83E20FB68002283F83C200023B4
:1042900000E0022318462837BD4680BD0400010017
:1042A0000400002089B5F81480B588B002AFF8602A
:1042B000084611461A4603467B810B463B8113464E
:1042C000FB80FB681B681A68FB681B6842F48072FD
:1042D0001A607B6A00933B6A00224FF00111F86874
:1042E00000F060F90346002B0DD0FB681B681B68CB
:1042F00003F48073B3F5807F03D1FB684FF4007241
:104300001A6403235FE07B89DBB21A46FB681B68F3
:1043100002F0FE021A617B6A3A6A2D49F86800F0E1
:10432000BBF90346002B01D001234CE000237B6145
:10433000FB681B685B697B61FB681B689B697B6131
:104340007B697A6A396AF86800F046FA0346002BFE
:104350000DD0FB681B6C042B07D1FB681B681A6827
:10436000FB681B6842F400721A6001232BE0FB8893
:10437000012B05D13B89DAB2FB681B681A6121E089
:104380003B891B0A9BB2DAB2FB681B681A617A6A26
:10439000396AF86800F020FA0346002B0DD0FB685C
:1043A0001B6C042B07D1FB681B681A68FB681B6831
:1043B00042F400721A60012305E03B89DAB2FB681F
:1043C0001B681A61002318461837BD4680BD00BF20
:1043D0000200010080B588B002AFF86008461146BF
:1043E0001A4603467B810B463B811346FB80FB68E4
:1043F0001B681A68FB681B6842F480621A60FB68DD
:104400001B681A68FB681B6842F480721A607B6A3A
:1044100000933B6A00224FF00111F86800F0C2F8E7
:104420000346002B0DD0FB681B681B6803F48073E8
:10443000B3F5807F03D1FB684FF400721A64032345
:10444000AAE07B89DBB21A46FB681B6802F0FE0219
:104450001A617B6A3A6A5249F86800F01DF903460E
:10446000002B01D0012397E000237B61FB681B68D0
:104470005B697B61FB681B689B697B617B697A6A0E
:10448000396AF86800F0A8F90346002B0DD0FB68E4
:104490001B6C042B07D1FB681B681A68FB681B6840
:1044A00042F400721A60012376E0FB88012B05D1EB
:1044B0003B89DAB2FB681B681A6121E03B891B0A61
:1044C0009BB2DAB2FB681B681A617A6A396AF868CB
:1044D00000F082F90346002B0DD0FB681B6C042B07
:1044E00007D1FB681B681A68FB681B6842F40072FE
:1044F0001A60012350E03B89DAB2FB681B681A613D
:104500007A6A396AF86800F067F90346002B0DD023
:10451000FB681B6C042B07D1FB681B681A68FB68DF
:104520001B6842F400721A60012335E0FB681B68C7
:104530001A68FB681B6842F480721A607B6A0093F9
:104540003B6A00224FF00111F86800F02BF8034697
:10455000002B0DD0FB681B681B6803F48073B3F558
:10456000807F03D1FB684FF400721A64032313E0C9
:104570007B89DBB243F00103DAB2FB681B681A6186
:104580007B6A3A6A0649F86800F086F80346002B11
:1045900001D0012300E0002318461837BD4680BD36
:1045A0000200010080B584B000AFF860B9603B60E4
:1045B0001346FB7148E03B68B3F1FF3F44D0FEF780
:1045C0001FFD0246BB69D31A3A689A4202D33B6880
:1045D000002B39D1BB681B0CDBB2012B0DD1FB6862
:1045E0001B685B69DA43BB6813409BB2002B0CBFAE
:1045F00001230023DBB21A460CE0FB681B689B69B1
:10460000DA43BB6813409BB2002B0CBF012300238D
:10461000DBB21A46FB799A4216D1FB6800221A6374
:10462000FB68202283F83D20FB68002283F83E20AF
:10463000FB681B6C43F02002FB681A64FB680022D5
:1046400083F83C20012323E0BB681B0CDBB2012B69
:104650000DD1FB681B685B69DA43BB6813409BB2F2
:10466000002B0CBF01230023DBB21A460CE0FB68D1
:104670001B689B69DA43BB6813409BB2002B0CBFDD
:1046800001230023DBB21A46FB799A4293D0002320
:1046900018461037BD4680BD80B584B000AFF860C5
:1046A000B9607A603B6071E0FB681B685B6903F48A
:1046B0008063B3F5806F23D1FB681B681A68FB68C1
:1046C0001B6842F400721A60FB681B686FF480621A
:1046D0005A61FB6800221A63FB68202283F83D20A0
:1046E000FB68002283F83E20FB681B6C43F0040249
:1046F000FB681A64FB68002283F83C20012367E012
:104700007B68B3F1FF3F41D0FEF77AFC02463B687D
:10471000D31A7A689A4202D37B68002B36D1BB68E1
:104720001B0CDBB2012B0CD1FB681B685B69DA4305
:10473000BB6813409BB2002B14BF01230023DBB2E4
:104740000BE0FB681B689B69DA43BB6813409BB2B4
:10475000002B14BF01230023DBB2002B16D0FB6813
:1047600000221A63FB68202283F83D20FB680022A8
:1047700083F83E20FB681B6C43F02002FB681A6440
:10478000FB68002283F83C20012321E0BB681B0C5E
:10479000DBB2012B0CD1FB681B685B69DA43BB6899
:1047A00013409BB2002B14BF01230023DBB20BE0AC
:1047B000FB681B689B69DA43BB6813409BB2002B04
:1047C00014BF01230023DBB2002B7FF46DAF002365
:1047D00018461037BD4680BD80B584B000AFF86084
:1047E000B9607A6034E0F86800F0E3F80346002B23
:1047F00001D0012334E0BB68B3F1FF3F28D0FEF7BE
:10480000FFFB02467B68D31ABA689A4202D3BB68A0
:10481000002B1DD1FB681B685B6903F08003802BB4
:1048200016D0FB6800221A63FB68202283F83D2023
:10483000FB68002283F83E20FB681B6C43F02002DB
:10484000FB681A64FB68002283F83C20012307E020
:10485000FB681B685B6903F08003802BC3D10023D6
:1048600018461037BD4680BD80B584B000AFF860F3
:10487000B9607A6034E0F86800F09BF80346002BDA
:1048800001D0012334E0BB68B3F1FF3F28D0FEF72D
:10489000B7FB02467B68D31ABA689A4202D3BB6858
:1048A000002B1DD1FB681B685B6903F00403042B1C
:1048B00016D0FB6800221A63FB68202283F83D2093
:1048C000FB68002283F83E20FB681B6C43F020024B
:1048D000FB681A64FB68002283F83C20012307E090
:1048E000FB681B685B6903F00403042BC3D100233E
:1048F00018461037BD4680BD80B584B000AFF86063
:10490000B9607A6049E0FB681B685B6903F01003DB
:10491000102B19D1FB681B686FF010025A61FB68FD
:1049200000221A63FB68202283F83D20FB680022E6
:1049300083F83E20FB681A6CFB681A64FB6800224F
:1049400083F83C20012330E0FEF75AFB02467B68E7
:10495000D31ABA689A4202D3BB68002B1DD1FB68F8
:104960001B685B6903F04003402B16D0FB680022F4
:104970001A63FB68202283F83D20FB68002283F83D
:104980003E20FB681B6C43F02002FB681A64FB6846
:10499000002283F83C20012307E0FB681B685B6969
:1049A00003F04003402BAED1002318461037BD461C
:1049B00080BD80B483B000AF78607B681B685B69A2
:1049C00003F48063B3F5806F1BD17B681B686FF4C1
:1049D00080625A617B6800221A637B68202283F818
:1049E0003D207B68002283F83E207B681B6C43F0EF
:1049F00004027B681A647B68002283F83C20012350
:104A000000E0002318460C37BD4680BC704700000C
:104A100080B586B000AF78607B68002B01D10123A0
:104A200072E27B681B6803F00103002B00F08780B3
:104A3000924B5B6803F00C03042B0CD08F4B5B682C
:104A400003F00C03082B12D18C4B5B6803F480330A
:104A5000B3F5803F0BD1894B1B6803F40033002B67
:104A60006CD07B685B68002B68D101234CE27B68CB
:104A70005B68B3F5803F06D1804B1B687F4A43F4E7
:104A8000803313602EE07B685B68002B0CD17B4B7E
:104A90001B687A4A23F480331360784B1B68774A8B
:104AA00023F4802313601DE07B685B68B3F5A02FBF
:104AB0000CD1724B1B68714A43F4802313606F4B17
:104AC0001B686E4A43F4803313600BE06B4B1B682A
:104AD0006A4A23F480331360684B1B68674A23F4E7
:104AE000802313607B685B68002B13D0FEF788FA85
:104AF000386108E0FEF784FA02463B69D31A642B5A
:104B000001D9032300E25D4B1B6803F40033002B43
:104B1000F0D014E0FEF774FA386108E0FEF770FA9E
:104B200002463B69D31A642B01D90323ECE1534BB2
:104B30001B6803F40033002BF0D100E000BF7B685A
:104B40001B6803F00203002B63D04C4B5B6803F03F
:104B50000C03002B0BD0494B5B6803F00C03082BB4
:104B60001CD1464B5B6803F48033002B16D1434BBA
:104B70001B6803F00203002B05D07B681B69012B27
:104B800001D00123C0E13D4B1B6823F0F8027B6894
:104B90005B69DB00394913430B603AE07B681B69B2
:104BA000002B20D0364B01221A60FEF729FA38611B
:104BB00008E0FEF725FA02463B69D31A022B01D919
:104BC0000323A1E12D4B1B6803F00203002BF0D05F
:104BD0002A4B1B6823F0F8027B685B69DB002749DE
:104BE00013430B6015E0264B00221A60FEF708FA0B
:104BF000386108E0FEF704FA02463B69D31A022B3B
:104C000001D9032380E11D4B1B6803F00203002B35
:104C1000F0D17B681B6803F00803002B3AD07B6857
:104C20009B69002B19D0174B01221A60FEF7E8F997
:104C3000386108E0FEF7E4F902463B69D31A022B1B
:104C400001D9032360E10D4B5B6A03F00203002BE3
:104C5000F0D0012000F0CEFA1CE00A4B00221A60CE
:104C6000FEF7CEF938610FE0FEF7CAF902463B695C
:104C7000D31A022B08D9032346E100BF00100240DB
:104C80000000424280044242924B5B6A03F00203FE
:104C9000002BE9D17B681B6803F00403002B00F0B4
:104CA000A6800023FB758B4BDB6903F08053002B40
:104CB0000DD1884BDB69874A43F08053D361854B24
:104CC000DB6903F08053BB60BB680123FB75824B3B
:104CD0001B6803F48073002B18D17F4B1B687E4A3E
:104CE00043F480731360FEF78BF9386108E0FEF738
:104CF00087F902463B69D31A642B01D9032303E1E8
:104D0000754B1B6803F48073002BF0D07B68DB6865
:104D1000012B06D16F4B1B6A6E4A43F001031362ED
:104D20002DE07B68DB68002B0CD16A4B1B6A694A5B
:104D300023F001031362674B1B6A664A23F00403E6
:104D400013621CE07B68DB68052B0CD1614B1B6A8E
:104D5000604A43F0040313625E4B1B6A5D4A43F0F2
:104D6000010313620BE05B4B1B6A5A4A23F00103F9
:104D70001362584B1B6A574A23F0040313627B6883
:104D8000DB68002B15D0FEF73BF938610AE0FEF72F
:104D900037F902463B69D31A41F28832934201D96E
:104DA0000323B1E04B4B1B6A03F00203002BEED050
:104DB00014E0FEF725F938610AE0FEF721F9024612
:104DC0003B69D31A41F28832934201D903239BE015
:104DD000404B1B6A03F00203002BEED1FB7D012B3D
:104DE00005D13C4BDB693B4A23F08053D3617B68A0
:104DF000DB69002B00F08780364B5B6803F00C0307
:104E0000082B61D07B68DB69022B46D1334B002233
:104E10001A60FEF7F5F8386108E0FEF7F1F802468F
:104E20003B69D31A022B01D903236DE0294B1B6880
:104E300003F00073002BF0D17B681B6AB3F5803F51
:104E400008D1244B5B6823F400327B689B682149BE
:104E500013434B601F4B5B6823F474127B68196A21
:104E60007B685B6A0B431B4913434B601B4B01225E
:104E70001A60FEF7C5F8386108E0FEF7C1F802468F
:104E80003B69D31A022B01D903233DE0114B1B6868
:104E900003F00073002BF0D035E0104B00221A60B5
:104EA000FEF7AEF8386108E0FEF7AAF802463B6963
:104EB000D31A022B01D9032326E0064B1B6803F00B
:104EC0000073002BF0D11EE07B68DB69012B07D15A
:104ED000012319E0001002400070004060004242CF
:104EE0000B4B5B68FB60FB6803F480327B681B6ADA
:104EF0009A4206D1FB6803F470127B685B6A9A429F
:104F000001D0012300E0002318461837BD4680BDBC
:104F10000010024080B584B000AF786039607B68D3
:104F2000002B01D10123D0E06A4B1B6803F007037B
:104F30003A689A4210D9674B1B6823F0070265490B
:104F40003B6813430B60634B1B6803F007033A682D
:104F50009A4201D00123B8E07B681B6803F002038A
:104F6000002B20D07B681B6803F00403002B05D0C6
:104F7000594B5B68584A43F4E06353607B681B6895
:104F800003F00803002B05D0534B5B68524A43F4EF
:104F900060535360504B5B6823F0F0027B689B6862
:104FA0004D4913434B607B681B6803F00103002BE2
:104FB00040D07B685B68012B07D1474B1B6803F42B
:104FC0000033002B15D101237FE07B685B68022B47
:104FD00007D1414B1B6803F00073002B09D101235B
:104FE00073E03D4B1B6803F00203002B01D101234A
:104FF0006BE0394B5B6823F003027B685B683649E2
:1050000013434B60FDF7FCFFF8600AE0FDF7F8FF83
:105010000246FB68D31A41F28832934201D9032336
:1050200053E02D4B5B6803F00C027B685B689B00D0
:105030009A42EBD1274B1B6803F007033A689A4268
:1050400010D2244B1B6823F0070222493B6813430C
:105050000B60204B1B6803F007033A689A4201D0AB
:10506000012332E07B681B6803F00403002B08D0A7
:10507000194B5B6823F4E0627B68DB6816491343D5
:105080004B607B681B6803F00803002B09D0124BB0
:105090005B6823F460527B681B69DB000E49134395
:1050A0004B6000F021F802460B4B5B681B0903F0D4
:1050B0000F030A49CB5C22FA03F3094A1360094B38
:1050C0001B681846FDF75AFF002318461037BD46E7
:1050D00080BD00BF0020024000100240A0AB0008CD
:1050E000040000200800002080B487B000AF002337
:1050F000FB600023BB6000237B6100237B600023F7
:105100003B611E4B5B68FB60FB6803F00C03042BE8
:1051100002D0082B03D027E0194B3B6127E0FB6846
:105120009B0C03F00F03174AD35C7B60FB6803F40E
:105130008033002B10D0114B5B685B0C03F0010334
:10514000114AD35CBB607B680D4A03FB02F2BB686B
:10515000B2FBF3F37B6104E07B680C4A02FB03F3D0
:105160007B617B693B6102E0054B3B6100BF3B69B2
:1051700018461C37BD4680BC704700BF0010024077
:1051800000127A00B8AB0008C8AB000800093D0067
:1051900080B400AF024B1B681846BD4680BC704708
:1051A0000400002080B500AFFFF7F2FF0246054B78
:1051B0005B681B0A03F007030349CB5C22FA03F385
:1051C000184680BD00100240B0AB000880B500AFAB
:1051D000FFF7DEFF0246054B5B68DB0A03F00703BF
:1051E0000349CB5C22FA03F3184680BD001002404D
:1051F000B0AB000880B485B000AF78600A4B1B6884
:105200000A4AA2FB03235B0A7A6802FB03F3FB60F2
:1052100000BFFB685A1EFA60002BF9D100BF00BF27
:105220001437BD4680BC704704000020D34D621087
:1052300080B582B000AF78607B68002B01D101237C
:1052400042E07B6893F84130DBB2002B06D17B68EB
:10525000002283F840207868FDF742FC7B68242216
:1052600083F841207B681B68DA687B681B6822F43E
:105270000052DA60786800F081FB7B681B681A696D
:105280007B681B6822F490421A617B681B685A692C
:105290007B681B6822F02A025A617B681B68DA6807
:1052A0007B681B6842F40052DA607B6800225A6413
:1052B0007B68202283F841207B68202283F84220EB
:1052C0007B6800225A63002318460837BD4680BD1C
:1052D00080B58AB002AFF860B9603B601346FB80CE
:1052E00000237B61FB6893F84130DBB2202B6DD14A
:1052F000BB68002B02D0FB88002B01D1012366E0A4
:10530000FB6800225A64FB68212283F84120FDF7E4
:1053100077FE7861FB68FA889A84FB68FA88DA84F9
:10532000FB689B68B3F5805F08D1FB681B69002BA5
:1053300004D10023FB61BB68BB6103E0BB68FB6178
:105340000023BB612AE03B6800937B690022802137
:10535000F86800F080F90346002B01D0032336E003
:10536000FB69002B0BD1BB691B881A46FB681B68C5
:10537000C2F308025A60BB690233BB6107E0FB69F4
:105380001A78FB681B685A60FB690133FB61FB6894
:10539000DB8C9BB2013B9AB2FB68DA84FB68DB8C46
:1053A0009BB2002BCFD13B6800937B690022402148
:1053B000F86800F050F90346002B01D0032306E003
:1053C000FB68202283F84120002300E002231846D6
:1053D0002037BD4680BD80B584B000AFF860B960AD
:1053E0001346FB80FB6893F84230DBB2202B12D1CE
:1053F000BB68002B02D0FB88002B01D101230BE0FE
:10540000FB6800221A63FB881A46B968F86800F046
:1054100091F9034600E0022318461037BD4680BDCF
:1054200080B483B000AF786000BF0C37BD4680BC4D
:10543000704780B483B000AF786000BF0C37BD46C2
:1054400080BC704780B483B000AF78600B467B802F
:1054500000BF0C37BD4680BC704780B59CB000AF24
:1054600078607B685B6AFB667B681B681B6803F07F
:105470002003002B72D1FB6E0022DA85FB6E1B68C5
:105480000C33FB64FB6C53E8003FBB64BB6C23F440
:105490008073BB66FB6E1B680C33BA6EBA657B65A6
:1054A000796DBA6D41E800233B653B6D002BE5D17A
:1054B000FB6E1B681433BB63BB6B53E8003F7B631D
:1054C0007B6B23F001037B66FB6E1B6814337A6EE3
:1054D0007A643B64396C7A6C41E80023FB63FB6BB4
:1054E000002BE5D1FB6E1B6814337B627B6A53E8AB
:1054F000003F3B623B6A23F040033B66FB6E1B6848
:1055000014333A6E3A63FB62F96A3A6B41E800235E
:10551000BB62BB6A002BE5D1FB6E202283F84220E0
:10552000FB6E1B6B012B19D1FB6E1B680C333B61AF
:105530003B6953E8003FFB60FB6823F01003FB6509
:10554000FB6E1B680C33FA6DFA61BB61B969FA69CD
:1055500041E800237B617B69002BE5D1FB6E0022D3
:105560005A63FB6E1B6B012B06D1FB6E9B8D19469C
:10557000F86EFFF767FF02E0F86EFDF735F900BF40
:105580007037BD4680BD80B584B000AF78607B6861
:105590005B6AFB60FB6801225A63FB681B6B012B93
:1055A00008D1FB689B8D5B089BB21946F868FFF732
:1055B00049FF02E0F868FFF733FF00BF1037BD4630
:1055C00080BD80B584B000AF78600023FB607B684D
:1055D0005B6ABB60BB681B685B6903F08003002BE0
:1055E00014BF01230023DBB2FB60BB6893F841309A
:1055F000DBB2212B08D1FB68002B05D0BB68002251
:10560000DA84B86800F030F9BB681B685B6903F0A6
:105610004003002B14BF01230023DBB2FB60BB68F7
:1056200093F84230DBB2222B08D1FB68002B05D067
:10563000BB680022DA85B86800F03DF9BB685B6C96
:1056400043F01002BB685A64B868FFF7F2FE00BF6F
:105650001037BD4680BD80B590B000AFF860B9602E
:105660003B601346FB7150E0BB6CB3F1FF3F4CD085
:10567000BB6C002B07D0FDF7C3FC02463B68D31A76
:10568000BA6C9A4241D2FB681B680C33BB62BB6A9E
:1056900053E8003F7B627B6A23F4D073FB63FB68B3
:1056A0001B680C33FA6B7A633B63396B7A6B41E8A6
:1056B0000023FB62FB6A002BE5D1FB681B681433F7
:1056C0007B617B6953E8003F3B613B6923F0010349
:1056D000BB63FB681B681433BA6B3A62FB61F96900
:1056E0003A6A41E80023BB61BB69002BE5D1FB6846
:1056F000202283F84120FB68202283F84220FB68A7
:10570000002283F8402003230FE0FB681B681A681F
:10571000BB681340BA689A420CBF01230023DBB276
:105720001A46FB799A429FD0002318464037BD465F
:1057300080BD000080B598B000AFF860B960134636
:10574000FB80BA68FB689A62FB68FA889A85FB68F6
:1057500000225A64FB68222283F84220FB68DB6B3C
:105760003E4A9A62FB68DB6B3D4ADA62FB68DB6BA0
:105770003C4A1A63FB68DB6B00225A6307F108039B
:10578000FB65FB68D86BFB681B6804331946FB6D2F
:105790001A68FB88FDF7CAFD00233B61FB681B68A4
:1057A0001B683B61FB681B685B683B613B69FB688E
:1057B0001B69002B19D0FB681B680C333B643B6CE6
:1057C00053E8003FFB63FB6B43F48073BB65FB68EE
:1057D0001B680C33BA6DFA64BB64B96CFA6C41E8AF
:1057E00000237B647B6C002BE5D1FB681B681433C2
:1057F000FB62FB6A53E8003FBB62BB6A43F00103F4
:105800007B65FB681B6814337A6DBA637B63796BC5
:10581000BA6B41E800233B633B6B002BE5D1FB688F
:105820001B681433BB61BB6953E8003F7B617B6934
:1058300043F040033B65FB681B6814333A6D7A62A2
:105840003B62396A7A6A41E80023FB61FB69002BFD
:10585000E5D1002318466037BD4680BD5B54000883
:1058600087550008C355000880B489B000AF786040
:105870007B681B680C33FB60FB6853E8003FBB6030
:10588000BB6823F0C003FB617B681B680C33FA69BB
:10589000BA617B617969BA6941E800233B613B6980
:1058A000002BE5D17B68202283F8412000BF2437FC
:1058B000BD4680BC704780B495B000AF78607B680F
:1058C0001B680C337B637B6B53E8003F3B633B6B94
:1058D00023F49073FB647B681B680C33FA6C3A64A6
:1058E000FB63F96B3A6C41E80023BB63BB6B002B95
:1058F000E5D17B681B6814333B623B6A53E8003F89
:10590000FB61FB6923F00103BB647B681B681433F4
:10591000BA6CFA62BB62B96AFA6A41E800237B6238
:105920007B6A002BE5D17B681B6B012B19D17B684F
:105930001B680C33FB60FB6853E8003FBB60BB682F
:1059400023F010037B647B681B680C337A6CBA61AC
:105950007B617969BA6941E800233B613B69002BAF
:10596000E5D17B68202283F842207B6800221A63FD
:1059700000BF5437BD4680BC7047000080B584B07E
:1059800000AF78607B681B681B6923F440517B681B
:10599000DA687B681B680A431A617B689A687B68CF
:1059A0001B691A437B685B691343BB607B681B6898
:1059B000DB6823F4B05323F00C037A681268B968EB
:1059C0000B43D3607B681B685B6923F440717B6881
:1059D0009A697B681B680A435A617B681B682C4A7A
:1059E000934203D1FFF7F2FBF86002E0FFF7DAFB26
:1059F000F860FA6813469B0013449A001A447B68C7
:105A00005B689B00B2FBF3F3224AA2FB03235B0912
:105A10001901FA6813469B0013449A001A447B68E4
:105A20005B689B00B2FBF3F21A4BA3FB02035B091A
:105A3000642000FB03F3D31A1B013233154AA2FB87
:105A400003235B0903F0F0031944FA6813469B0033
:105A500013449A001A447B685B689B00B2FBF3F224
:105A60000C4BA3FB02035B09642000FB03F3D31A76
:105A70001B013233074AA2FB03235B0903F00F0229
:105A80007B681B680A449A6000BF1037BD4680BD22
:105A9000003801401F85EB51002B2DE9F0471D46D2
:105AA000BBBF03F100431D4600232D2388B01446DD
:105AB000B8BF1446129A109E1370149BDDF84CA0C8
:105AC00023F02008B8F1460F05D0B8F1450F00D1FA
:105AD0000136022300E0032307AA049206AACDE9B7
